{
  "contractName": "DEX",
  "abi": [
    {
      "inputs": [
        {
          "name": "matchingEngine",
          "type": "address"
        }
      ],
      "payable": false,
      "stateMutability": "nonpayable",
      "type": "constructor"
    },
    {
      "anonymous": false,
      "inputs": [
        {
          "indexed": false,
          "name": "tokenMaker",
          "type": "address"
        },
        {
          "indexed": false,
          "name": "tokenTaker",
          "type": "address"
        },
        {
          "indexed": false,
          "name": "amountMaker",
          "type": "uint256"
        },
        {
          "indexed": false,
          "name": "amountTaker",
          "type": "uint256"
        },
        {
          "indexed": false,
          "name": "addressMaker",
          "type": "address"
        },
        {
          "indexed": false,
          "name": "addressTaker",
          "type": "address"
        },
        {
          "indexed": false,
          "name": "nonce",
          "type": "uint256"
        }
      ],
      "name": "OrderFilled",
      "type": "event"
    },
    {
      "constant": true,
      "inputs": [],
      "name": "matchingEngine",
      "outputs": [
        {
          "name": "",
          "type": "address"
        }
      ],
      "payable": false,
      "stateMutability": "view",
      "type": "function"
    },
    {
      "constant": true,
      "inputs": [
        {
          "name": "account",
          "type": "address"
        },
        {
          "name": "token",
          "type": "address"
        }
      ],
      "name": "balanceOf",
      "outputs": [
        {
          "name": "",
          "type": "uint256"
        }
      ],
      "payable": false,
      "stateMutability": "view",
      "type": "function"
    },
    {
      "constant": false,
      "inputs": [
        {
          "name": "token",
          "type": "address"
        },
        {
          "name": "amount",
          "type": "uint256"
        }
      ],
      "name": "deposit",
      "outputs": [],
      "payable": false,
      "stateMutability": "nonpayable",
      "type": "function"
    },
    {
      "constant": false,
      "inputs": [
        {
          "name": "token",
          "type": "address"
        },
        {
          "name": "amount",
          "type": "uint256"
        }
      ],
      "name": "withdraw",
      "outputs": [],
      "payable": false,
      "stateMutability": "nonpayable",
      "type": "function"
    },
    {
      "constant": false,
      "inputs": [
        {
          "name": "tokenMaker",
          "type": "address"
        },
        {
          "name": "tokenTaker",
          "type": "address"
        },
        {
          "name": "amountMaker",
          "type": "uint256"
        },
        {
          "name": "amountTaker",
          "type": "uint256"
        },
        {
          "name": "addressMaker",
          "type": "address"
        },
        {
          "name": "addressTaker",
          "type": "address"
        },
        {
          "name": "nonce",
          "type": "uint256"
        },
        {
          "name": "signature",
          "type": "bytes"
        }
      ],
      "name": "trade",
      "outputs": [],
      "payable": false,
      "stateMutability": "nonpayable",
      "type": "function"
    }
  ],
  "bytecode": "0x608060405234801561001057600080fd5b50604051602080610ff48339810180604052602081101561003057600080fd5b810190808051906020019092919050505080600160006101000a81548173ffffffffffffffffffffffffffffffffffffffff021916908373ffffffffffffffffffffffffffffffffffffffff1602179055503373ffffffffffffffffffffffffffffffffffffffff166000809054906101000a9050505050610f3d806100b76000396000f3fe608060405234801561001057600080fd5b50600436106100575760003560e01c80631c0edff21461005c57806347e7ef24146100a657806362ec2c75146100f4578063f3fef3a31461024e578063f7888aec1461029c575b600080fd5b610064610314565b604051808273ffffffffffffffffffffffffffffffffffffffff1673ffffffffffffffffffffffffffffffffffffffff16815260200191505060405180910390f35b6100f2600480360360408110156100bc57600080fd5b81019080803573ffffffffffffffffffffffffffffffffffffffff1690602001909291908035906020019092919050505061033e565b005b61024c600480360361010081101561010b57600080fd5b81019080803573ffffffffffffffffffffffffffffffffffffffff169060200190929190803573ffffffffffffffffffffffffffffffffffffffff1690602001909291908035906020019092919080359060200190929190803573ffffffffffffffffffffffffffffffffffffffff169060200190929190803573ffffffffffffffffffffffffffffffffffffffff16906020019092919080359060200190929190803590602001906401000000008111156101c657600080fd5b8201836020820111156101d857600080fd5b803590602001918460018302840111640100000000831117156101fa57600080fd5b91908080601f016020809104026020016040519081016040528093929190818152602001838380828437600081840152601f19601f820116905080830192505050505050509192919290505050610697565b005b61029a6004803603604081101561026457600080fd5b81019080803573ffffffffffffffffffffffffffffffffffffffff16906020019092919080359060200190929190505050610c1a565b005b6102fe600480360360408110156102b257600080fd5b81019080803573ffffffffffffffffffffffffffffffffffffffff169060200190929190803573ffffffffffffffffffffffffffffffffffffffff169060200190929190505050610c1e565b6040518082815260200191505060405180910390f35b6000600160009054906101000a900473ffffffffffffffffffffffffffffffffffffffff16905090565b8173ffffffffffffffffffffffffffffffffffffffff166352ec85293330846040518463ffffffff1660e01b8152600401808473ffffffffffffffffffffffffffffffffffffffff1673ffffffffffffffffffffffffffffffffffffffff1681526020018373ffffffffffffffffffffffffffffffffffffffff1673ffffffffffffffffffffffffffffffffffffffff1681526020018281526020019350505050602060405180830381600087803b1580156103f957600080fd5b505af115801561040d573d6000803e3d6000fd5b505050506040513d602081101561042357600080fd5b8101908080519060200190929190505050508173ffffffffffffffffffffffffffffffffffffffff166323b872dd3330846040518463ffffffff1660e01b8152600401808473ffffffffffffffffffffffffffffffffffffffff1673ffffffffffffffffffffffffffffffffffffffff1681526020018373ffffffffffffffffffffffffffffffffffffffff1673ffffffffffffffffffffffffffffffffffffffff1681526020018281526020019350505050602060405180830381600087803b1580156104f057600080fd5b505af1158015610504573d6000803e3d6000fd5b505050506040513d602081101561051a57600080fd5b8101908080519060200190929190505050506001600360008473ffffffffffffffffffffffffffffffffffffffff1673ffffffffffffffffffffffffffffffffffffffff16815260200190815260200160002060006101000a81548160ff02191690831515021790555061061381600260008573ffffffffffffffffffffffffffffffffffffffff1673ffffffffffffffffffffffffffffffffffffffff16815260200190815260200160002060003373ffffffffffffffffffffffffffffffffffffffff1673ffffffffffffffffffffffffffffffffffffffff16815260200190815260200160002054610d6b90919063ffffffff16565b600260008473ffffffffffffffffffffffffffffffffffffffff1673ffffffffffffffffffffffffffffffffffffffff16815260200190815260200160002060003373ffffffffffffffffffffffffffffffffffffffff1673ffffffffffffffffffffffffffffffffffffffff168152602001908152602001600020819055505050565b61069f610e7c565b6040518060e001604052808a73ffffffffffffffffffffffffffffffffffffffff1681526020018973ffffffffffffffffffffffffffffffffffffffff1681526020018881526020018781526020018673ffffffffffffffffffffffffffffffffffffffff1681526020018573ffffffffffffffffffffffffffffffffffffffff168152602001848152509050600089905060008990508173ffffffffffffffffffffffffffffffffffffffff1663a9059cbb878b6040518363ffffffff1660e01b8152600401808373ffffffffffffffffffffffffffffffffffffffff1673ffffffffffffffffffffffffffffffffffffffff16815260200182815260200192505050602060405180830381600087803b1580156107bd57600080fd5b505af11580156107d1573d6000803e3d6000fd5b505050506040513d60208110156107e757600080fd5b81019080805190602001909291905050505061088889600260008e73ffffffffffffffffffffffffffffffffffffffff1673ffffffffffffffffffffffffffffffffffffffff16815260200190815260200160002060008a73ffffffffffffffffffffffffffffffffffffffff1673ffffffffffffffffffffffffffffffffffffffff16815260200190815260200160002054610df390919063ffffffff16565b600260008d73ffffffffffffffffffffffffffffffffffffffff1673ffffffffffffffffffffffffffffffffffffffff16815260200190815260200160002060008973ffffffffffffffffffffffffffffffffffffffff1673ffffffffffffffffffffffffffffffffffffffff1681526020019081526020016000208190555061099789600260008e73ffffffffffffffffffffffffffffffffffffffff1673ffffffffffffffffffffffffffffffffffffffff16815260200190815260200160002060008973ffffffffffffffffffffffffffffffffffffffff1673ffffffffffffffffffffffffffffffffffffffff16815260200190815260200160002054610d6b90919063ffffffff16565b600260008d73ffffffffffffffffffffffffffffffffffffffff1673ffffffffffffffffffffffffffffffffffffffff16815260200190815260200160002060008873ffffffffffffffffffffffffffffffffffffffff1673ffffffffffffffffffffffffffffffffffffffff168152602001908152602001600020819055508073ffffffffffffffffffffffffffffffffffffffff1663a9059cbb888a6040518363ffffffff1660e01b8152600401808373ffffffffffffffffffffffffffffffffffffffff1673ffffffffffffffffffffffffffffffffffffffff16815260200182815260200192505050602060405180830381600087803b158015610a9e57600080fd5b505af1158015610ab2573d6000803e3d6000fd5b505050506040513d6020811015610ac857600080fd5b8101908080519060200190929190505050507f840ce3964266bdf8c78bfb4588758dd9c6c272d1e96073c8a764e3ec712a4e45836000015184602001518560400151866060015187608001518860a001518960c00151604051808873ffffffffffffffffffffffffffffffffffffffff1673ffffffffffffffffffffffffffffffffffffffff1681526020018773ffffffffffffffffffffffffffffffffffffffff1673ffffffffffffffffffffffffffffffffffffffff1681526020018681526020018581526020018473ffffffffffffffffffffffffffffffffffffffff1673ffffffffffffffffffffffffffffffffffffffff1681526020018373ffffffffffffffffffffffffffffffffffffffff1673ffffffffffffffffffffffffffffffffffffffff16815260200182815260200197505050505050505060405180910390a15050505050505050505050565b5050565b600060011515600360008473ffffffffffffffffffffffffffffffffffffffff1673ffffffffffffffffffffffffffffffffffffffff16815260200190815260200160002060009054906101000a900460ff16151514610ce6576040517f08c379a00000000000000000000000000000000000000000000000000000000081526004018080602001828103825260208152602001807f42616c616e63653a20746f6b656e206973206e6f74206c69737465642079657481525060200191505060405180910390fd5b600260008373ffffffffffffffffffffffffffffffffffffffff1673ffffffffffffffffffffffffffffffffffffffff16815260200190815260200160002060008473ffffffffffffffffffffffffffffffffffffffff1673ffffffffffffffffffffffffffffffffffffffff16815260200190815260200160002054905092915050565b600080828401905083811015610de9576040517f08c379a000000000000000000000000000000000000000000000000000000000815260040180806020018281038252601b8152602001807f536166654d6174683a206164646974696f6e206f766572666c6f77000000000081525060200191505060405180910390fd5b8091505092915050565b600082821115610e6b576040517f08c379a000000000000000000000000000000000000000000000000000000000815260040180806020018281038252601e8152602001807f536166654d6174683a207375627472616374696f6e206f766572666c6f77000081525060200191505060405180910390fd5b600082840390508091505092915050565b6040518060e00160405280600073ffffffffffffffffffffffffffffffffffffffff168152602001600073ffffffffffffffffffffffffffffffffffffffff1681526020016000815260200160008152602001600073ffffffffffffffffffffffffffffffffffffffff168152602001600073ffffffffffffffffffffffffffffffffffffffff16815260200160008152509056fea165627a7a72305820965d9a3516a76acf7390ca174dc77461567a2dd883d96bc9adb6dcb173decd5c0029",
  "source": "pragma solidity ^0.5.2;\n\nimport \"openzeppelin-solidity/contracts/math/SafeMath.sol\";\nimport \"openzeppelin-solidity/contracts/token/ERC20/IERC20.sol\";\nimport \"./Approvable.sol\";\n\ncontract DEX {\n    using SafeMath for uint256;\n\n    address private _owner;\n    address private _matchingEngine;\n    mapping (address => mapping (address => uint256)) private _tokens;\n    mapping (address => bool) _listedTokens;\n\n    struct Trade {\n        address tokenMaker;\n        address tokenTaker;\n        uint256 amountMaker;\n        uint256 amountTaker;\n        address addressMaker;\n        address addressTaker;\n        uint256 nonce;\n    }\n\n    event OrderFilled(\n        address tokenMaker,\n        address tokenTaker,\n        uint256 amountMaker,\n        uint256 amountTaker,\n        address addressMaker,\n        address addressTaker,\n        uint256 nonce\n    );\n\n    constructor (address matchingEngine) public {\n        _matchingEngine = matchingEngine;\n        _owner == msg.sender; // Or we can hard code the matching engine address directly.\n    }\n\n    function matchingEngine() public view returns (address) {\n        return _matchingEngine;\n    }\n\n    function balanceOf(address account, address token) public view returns (uint256) {\n        require(_listedTokens[token] == true, \"Balance: token is not listed yet\");\n        return _tokens[token][account];\n    }\n\n    function deposit(address token, uint256 amount) public {\n        Approvable(token).approveFrom(msg.sender, address(this), amount);\n        IERC20(token).transferFrom(msg.sender, address(this), amount);\n        _listedTokens[token] = true;\n        _tokens[token][msg.sender] = _tokens[token][msg.sender].add(amount);\n    }\n\n    function withdraw(address token, uint256 amount) public {\n\n    }\n\n    function trade(\n        address tokenMaker,\n        address tokenTaker,\n        uint256 amountMaker,\n        uint256 amountTaker,\n        address addressMaker,\n        address addressTaker,\n        uint256 nonce,\n        bytes memory signature\n    ) public {\n        Trade memory trade = Trade(tokenMaker, tokenTaker, amountMaker, amountTaker, addressMaker, addressTaker, nonce);\n//        require(msg.sender = _matchingEngine, \"Sender: should be matching engine);\n//        require(isValidSignature(trade, signature), \"Trade: signature is invalid.\");\n\n        // Token exchange\n        IERC20 _tokenMaker = IERC20(tokenMaker);\n        IERC20 _tokenTaker = IERC20(tokenTaker);\n\n        _tokenMaker.transfer(addressTaker, amountMaker);\n        _tokens[tokenMaker][addressMaker] = _tokens[tokenMaker][addressMaker].sub(amountMaker);\n        _tokens[tokenMaker][addressTaker] = _tokens[tokenMaker][addressTaker].add(amountMaker);\n\n        _tokenTaker.transfer(addressMaker, amountTaker);\n//        _tokens[tokenTaker][addressTaker] = _tokens[tokenTaker][addressTaker].sub(amountMaker);\n//        _tokens[tokenTaker][addressMaker] = _tokens[tokenTaker][addressMaker].add(amountMaker);\n//\n        emit OrderFilled(\n            trade.tokenMaker,\n            trade.tokenTaker,\n            trade.amountMaker,\n            trade.amountTaker,\n            trade.addressMaker,\n            trade.addressTaker,\n            trade.nonce\n        );\n    }\n\n    function isValidSignature(Trade memory trade, bytes memory signature)\n        internal\n        view\n        returns (bool)\n    {\n        bytes32 tradeHash = prefixed(keccak256(abi.encodePacked(\n            trade.tokenMaker,\n            trade.tokenTaker,\n            trade.amountMaker,\n            trade.amountTaker,\n            trade.addressMaker,\n            trade.addressTaker,\n            trade.nonce\n        )));\n\n        // check that the signature is from the matching engine\n        return recoverSigner(tradeHash, signature) == _matchingEngine;\n    }\n\n    // builds a prefixed hash to mimic the behavior of eth_sign.\n    function prefixed(bytes32 hash) internal pure returns (bytes32) {\n        return keccak256(abi.encodePacked(\"\\x19Ethereum Signed Message:\\n32\", hash));\n    }\n\n    function recoverSigner(bytes32 message, bytes memory sig)\n        internal\n        pure\n        returns (address)\n    {\n        (uint8 v, bytes32 r, bytes32 s) = splitSignature(sig);\n\n        return ecrecover(message, v, r, s);\n    }\n\n    function splitSignature(bytes memory sig)\n        internal\n        pure\n        returns (uint8 v, bytes32 r, bytes32 s)\n    {\n        require(sig.length == 65);\n\n        assembly {\n        // first 32 bytes, after the length prefix\n            r := mload(add(sig, 32))\n        // second 32 bytes\n            s := mload(add(sig, 64))\n        // final byte (first byte of the next 32 bytes)\n            v := byte(0, mload(add(sig, 96)))\n        }\n\n        return (v, r, s);\n    }\n\n}",
  "sourcePath": "/Users/samyabouseda/Project/DecentralizedTradingPlatform/dex-frontend/contracts/DEX.sol",
  "compiler": {
    "name": "solc",
    "version": "0.5.8+commit.23d335f2.Emscripten.clang"
  },
  "schemaVersion": "3.0.11",
  "updatedAt": "2019-08-10T10:40:27.902Z",
  "devdoc": {
    "methods": {}
  },
  "userdoc": {
    "methods": {}
  }
}