{
  "contractName": "DEX",
  "abi": [
    {
      "inputs": [
        {
          "name": "matchingEngine",
          "type": "address"
        }
      ],
      "payable": false,
      "stateMutability": "nonpayable",
      "type": "constructor"
    },
    {
      "anonymous": false,
      "inputs": [
        {
          "indexed": false,
          "name": "tokenMaker",
          "type": "address"
        },
        {
          "indexed": false,
          "name": "tokenTaker",
          "type": "address"
        },
        {
          "indexed": false,
          "name": "amountMaker",
          "type": "uint256"
        },
        {
          "indexed": false,
          "name": "amountTaker",
          "type": "uint256"
        },
        {
          "indexed": false,
          "name": "addressMaker",
          "type": "address"
        },
        {
          "indexed": false,
          "name": "addressTaker",
          "type": "address"
        },
        {
          "indexed": false,
          "name": "nonce",
          "type": "uint256"
        }
      ],
      "name": "OrderFilled",
      "type": "event"
    },
    {
      "constant": true,
      "inputs": [],
      "name": "matchingEngine",
      "outputs": [
        {
          "name": "",
          "type": "address"
        }
      ],
      "payable": false,
      "stateMutability": "view",
      "type": "function"
    },
    {
      "constant": false,
      "inputs": [
        {
          "name": "token",
          "type": "address"
        },
        {
          "name": "amount",
          "type": "uint256"
        }
      ],
      "name": "deposit",
      "outputs": [],
      "payable": false,
      "stateMutability": "nonpayable",
      "type": "function"
    },
    {
      "constant": false,
      "inputs": [
        {
          "name": "token",
          "type": "address"
        },
        {
          "name": "amount",
          "type": "uint256"
        }
      ],
      "name": "withdraw",
      "outputs": [],
      "payable": false,
      "stateMutability": "nonpayable",
      "type": "function"
    },
    {
      "constant": false,
      "inputs": [
        {
          "name": "tokenMaker",
          "type": "address"
        },
        {
          "name": "tokenTaker",
          "type": "address"
        },
        {
          "name": "amountMaker",
          "type": "uint256"
        },
        {
          "name": "amountTaker",
          "type": "uint256"
        },
        {
          "name": "addressMaker",
          "type": "address"
        },
        {
          "name": "addressTaker",
          "type": "address"
        },
        {
          "name": "nonce",
          "type": "uint256"
        },
        {
          "name": "signature",
          "type": "bytes"
        }
      ],
      "name": "trade",
      "outputs": [],
      "payable": false,
      "stateMutability": "nonpayable",
      "type": "function"
    }
  ],
  "bytecode": "0x608060405234801561001057600080fd5b50604051602080610dcc8339810180604052602081101561003057600080fd5b810190808051906020019092919050505080600160006101000a81548173ffffffffffffffffffffffffffffffffffffffff021916908373ffffffffffffffffffffffffffffffffffffffff1602179055503373ffffffffffffffffffffffffffffffffffffffff166000809054906101000a9050505050610d15806100b76000396000f3fe608060405234801561001057600080fd5b506004361061004c5760003560e01c80631c0edff21461005157806347e7ef241461009b57806362ec2c75146100e9578063f3fef3a314610243575b600080fd5b610059610291565b604051808273ffffffffffffffffffffffffffffffffffffffff1673ffffffffffffffffffffffffffffffffffffffff16815260200191505060405180910390f35b6100e7600480360360408110156100b157600080fd5b81019080803573ffffffffffffffffffffffffffffffffffffffff169060200190929190803590602001909291905050506102bb565b005b610241600480360361010081101561010057600080fd5b81019080803573ffffffffffffffffffffffffffffffffffffffff169060200190929190803573ffffffffffffffffffffffffffffffffffffffff1690602001909291908035906020019092919080359060200190929190803573ffffffffffffffffffffffffffffffffffffffff169060200190929190803573ffffffffffffffffffffffffffffffffffffffff16906020019092919080359060200190929190803590602001906401000000008111156101bb57600080fd5b8201836020820111156101cd57600080fd5b803590602001918460018302840111640100000000831117156101ef57600080fd5b91908080601f016020809104026020016040519081016040528093929190818152602001838380828437600081840152601f19601f8201169050808301925050505050505091929192905050506105bc565b005b61028f6004803603604081101561025957600080fd5b81019080803573ffffffffffffffffffffffffffffffffffffffff16906020019092919080359060200190929190505050610b3f565b005b6000600160009054906101000a900473ffffffffffffffffffffffffffffffffffffffff16905090565b8173ffffffffffffffffffffffffffffffffffffffff166352ec85293330846040518463ffffffff1660e01b8152600401808473ffffffffffffffffffffffffffffffffffffffff1673ffffffffffffffffffffffffffffffffffffffff1681526020018373ffffffffffffffffffffffffffffffffffffffff1673ffffffffffffffffffffffffffffffffffffffff1681526020018281526020019350505050602060405180830381600087803b15801561037657600080fd5b505af115801561038a573d6000803e3d6000fd5b505050506040513d60208110156103a057600080fd5b8101908080519060200190929190505050508173ffffffffffffffffffffffffffffffffffffffff166323b872dd3330846040518463ffffffff1660e01b8152600401808473ffffffffffffffffffffffffffffffffffffffff1673ffffffffffffffffffffffffffffffffffffffff1681526020018373ffffffffffffffffffffffffffffffffffffffff1673ffffffffffffffffffffffffffffffffffffffff1681526020018281526020019350505050602060405180830381600087803b15801561046d57600080fd5b505af1158015610481573d6000803e3d6000fd5b505050506040513d602081101561049757600080fd5b81019080805190602001909291905050505061053881600260008573ffffffffffffffffffffffffffffffffffffffff1673ffffffffffffffffffffffffffffffffffffffff16815260200190815260200160002060003373ffffffffffffffffffffffffffffffffffffffff1673ffffffffffffffffffffffffffffffffffffffff16815260200190815260200160002054610b4390919063ffffffff16565b600260008473ffffffffffffffffffffffffffffffffffffffff1673ffffffffffffffffffffffffffffffffffffffff16815260200190815260200160002060003373ffffffffffffffffffffffffffffffffffffffff1673ffffffffffffffffffffffffffffffffffffffff168152602001908152602001600020819055505050565b6105c4610c54565b6040518060e001604052808a73ffffffffffffffffffffffffffffffffffffffff1681526020018973ffffffffffffffffffffffffffffffffffffffff1681526020018881526020018781526020018673ffffffffffffffffffffffffffffffffffffffff1681526020018573ffffffffffffffffffffffffffffffffffffffff168152602001848152509050600089905060008990508173ffffffffffffffffffffffffffffffffffffffff1663a9059cbb878b6040518363ffffffff1660e01b8152600401808373ffffffffffffffffffffffffffffffffffffffff1673ffffffffffffffffffffffffffffffffffffffff16815260200182815260200192505050602060405180830381600087803b1580156106e257600080fd5b505af11580156106f6573d6000803e3d6000fd5b505050506040513d602081101561070c57600080fd5b8101908080519060200190929190505050506107ad89600260008e73ffffffffffffffffffffffffffffffffffffffff1673ffffffffffffffffffffffffffffffffffffffff16815260200190815260200160002060008a73ffffffffffffffffffffffffffffffffffffffff1673ffffffffffffffffffffffffffffffffffffffff16815260200190815260200160002054610bcb90919063ffffffff16565b600260008d73ffffffffffffffffffffffffffffffffffffffff1673ffffffffffffffffffffffffffffffffffffffff16815260200190815260200160002060008973ffffffffffffffffffffffffffffffffffffffff1673ffffffffffffffffffffffffffffffffffffffff168152602001908152602001600020819055506108bc89600260008e73ffffffffffffffffffffffffffffffffffffffff1673ffffffffffffffffffffffffffffffffffffffff16815260200190815260200160002060008973ffffffffffffffffffffffffffffffffffffffff1673ffffffffffffffffffffffffffffffffffffffff16815260200190815260200160002054610b4390919063ffffffff16565b600260008d73ffffffffffffffffffffffffffffffffffffffff1673ffffffffffffffffffffffffffffffffffffffff16815260200190815260200160002060008873ffffffffffffffffffffffffffffffffffffffff1673ffffffffffffffffffffffffffffffffffffffff168152602001908152602001600020819055508073ffffffffffffffffffffffffffffffffffffffff1663a9059cbb888a6040518363ffffffff1660e01b8152600401808373ffffffffffffffffffffffffffffffffffffffff1673ffffffffffffffffffffffffffffffffffffffff16815260200182815260200192505050602060405180830381600087803b1580156109c357600080fd5b505af11580156109d7573d6000803e3d6000fd5b505050506040513d60208110156109ed57600080fd5b8101908080519060200190929190505050507f840ce3964266bdf8c78bfb4588758dd9c6c272d1e96073c8a764e3ec712a4e45836000015184602001518560400151866060015187608001518860a001518960c00151604051808873ffffffffffffffffffffffffffffffffffffffff1673ffffffffffffffffffffffffffffffffffffffff1681526020018773ffffffffffffffffffffffffffffffffffffffff1673ffffffffffffffffffffffffffffffffffffffff1681526020018681526020018581526020018473ffffffffffffffffffffffffffffffffffffffff1673ffffffffffffffffffffffffffffffffffffffff1681526020018373ffffffffffffffffffffffffffffffffffffffff1673ffffffffffffffffffffffffffffffffffffffff16815260200182815260200197505050505050505060405180910390a15050505050505050505050565b5050565b600080828401905083811015610bc1576040517f08c379a000000000000000000000000000000000000000000000000000000000815260040180806020018281038252601b8152602001807f536166654d6174683a206164646974696f6e206f766572666c6f77000000000081525060200191505060405180910390fd5b8091505092915050565b600082821115610c43576040517f08c379a000000000000000000000000000000000000000000000000000000000815260040180806020018281038252601e8152602001807f536166654d6174683a207375627472616374696f6e206f766572666c6f77000081525060200191505060405180910390fd5b600082840390508091505092915050565b6040518060e00160405280600073ffffffffffffffffffffffffffffffffffffffff168152602001600073ffffffffffffffffffffffffffffffffffffffff1681526020016000815260200160008152602001600073ffffffffffffffffffffffffffffffffffffffff168152602001600073ffffffffffffffffffffffffffffffffffffffff16815260200160008152509056fea165627a7a72305820eaa8b61a5f58e84183a17e3c8eded763ca121c0a28442c5c3a4e1ab9a4e34dd00029",
  "source": "pragma solidity ^0.5.2;\n\nimport \"openzeppelin-solidity/contracts/math/SafeMath.sol\";\nimport \"openzeppelin-solidity/contracts/token/ERC20/IERC20.sol\";\nimport \"./Approvable.sol\";\n\ncontract DEX {\n    using SafeMath for uint256;\n\n    address private _owner;\n    address private _matchingEngine;\n    mapping (address => mapping (address => uint256)) private _tokens;\n\n    struct Trade {\n        address tokenMaker;\n        address tokenTaker;\n        uint256 amountMaker;\n        uint256 amountTaker;\n        address addressMaker;\n        address addressTaker;\n        uint256 nonce;\n    }\n\n    event OrderFilled(\n        address tokenMaker,\n        address tokenTaker,\n        uint256 amountMaker,\n        uint256 amountTaker,\n        address addressMaker,\n        address addressTaker,\n        uint256 nonce\n    );\n\n    constructor (address matchingEngine) public {\n        _matchingEngine = matchingEngine;\n        _owner == msg.sender; // Or we can hard code the matching engine address directly.\n    }\n\n    function matchingEngine() public view returns (address) {\n        return _matchingEngine;\n    }\n\n    function deposit(address token, uint256 amount) public {\n        Approvable(token).approveFrom(msg.sender, address(this), amount);\n        IERC20(token).transferFrom(msg.sender, address(this), amount);\n        _tokens[token][msg.sender] = _tokens[token][msg.sender].add(amount);\n    }\n\n    function withdraw(address token, uint256 amount) public {\n\n    }\n\n    function trade(\n        address tokenMaker,\n        address tokenTaker,\n        uint256 amountMaker,\n        uint256 amountTaker,\n        address addressMaker,\n        address addressTaker,\n        uint256 nonce,\n        bytes memory signature\n    ) public {\n        Trade memory trade = Trade(tokenMaker, tokenTaker, amountMaker, amountTaker, addressMaker, addressTaker, nonce);\n//        require(msg.sender = _matchingEngine, \");\n//        require(isValidSignature(trade, signature), \"Trade: signature is invalid.\");\n\n        // Token exchange\n        IERC20 _tokenMaker = IERC20(tokenMaker);\n        IERC20 _tokenTaker = IERC20(tokenTaker);\n\n        _tokenMaker.transfer(addressTaker, amountMaker);\n        _tokens[tokenMaker][addressMaker] = _tokens[tokenMaker][addressMaker].sub(amountMaker);\n        _tokens[tokenMaker][addressTaker] = _tokens[tokenMaker][addressTaker].add(amountMaker);\n\n        _tokenTaker.transfer(addressMaker, amountTaker);\n//        _tokens[tokenTaker][addressTaker] = _tokens[tokenTaker][addressTaker].sub(amountMaker);\n//        _tokens[tokenTaker][addressMaker] = _tokens[tokenTaker][addressMaker].add(amountMaker);\n//\n        emit OrderFilled(\n            trade.tokenMaker,\n            trade.tokenTaker,\n            trade.amountMaker,\n            trade.amountTaker,\n            trade.addressMaker,\n            trade.addressTaker,\n            trade.nonce\n        );\n    }\n\n    function isValidSignature(Trade memory trade, bytes memory signature)\n        internal\n        view\n        returns (bool)\n    {\n        bytes32 tradeHash = prefixed(keccak256(abi.encodePacked(\n            trade.tokenMaker,\n            trade.tokenTaker,\n            trade.amountMaker,\n            trade.amountTaker,\n            trade.addressMaker,\n            trade.addressTaker,\n            trade.nonce\n        )));\n\n        // check that the signature is from the matching engine\n        return recoverSigner(tradeHash, signature) == _matchingEngine;\n    }\n\n    // builds a prefixed hash to mimic the behavior of eth_sign.\n    function prefixed(bytes32 hash) internal pure returns (bytes32) {\n        return keccak256(abi.encodePacked(\"\\x19Ethereum Signed Message:\\n32\", hash));\n    }\n\n    function recoverSigner(bytes32 message, bytes memory sig)\n        internal\n        pure\n        returns (address)\n    {\n        (uint8 v, bytes32 r, bytes32 s) = splitSignature(sig);\n\n        return ecrecover(message, v, r, s);\n    }\n\n    function splitSignature(bytes memory sig)\n        internal\n        pure\n        returns (uint8 v, bytes32 r, bytes32 s)\n    {\n        require(sig.length == 65);\n\n        assembly {\n        // first 32 bytes, after the length prefix\n            r := mload(add(sig, 32))\n        // second 32 bytes\n            s := mload(add(sig, 64))\n        // final byte (first byte of the next 32 bytes)\n            v := byte(0, mload(add(sig, 96)))\n        }\n\n        return (v, r, s);\n    }\n\n}",
  "sourcePath": "/Users/samyabouseda/Project/DecentralizedTradingPlatform/dex-frontend/contracts/DEX.sol",
  "compiler": {
    "name": "solc",
    "version": "0.5.8+commit.23d335f2.Emscripten.clang"
  },
  "schemaVersion": "3.0.11",
  "updatedAt": "2019-08-09T16:04:44.053Z",
  "devdoc": {
    "methods": {}
  },
  "userdoc": {
    "methods": {}
  }
}