{
  "contractName": "DEX",
  "abi": [
    {
      "inputs": [],
      "payable": false,
      "stateMutability": "nonpayable",
      "type": "constructor"
    },
    {
      "anonymous": false,
      "inputs": [
        {
          "indexed": false,
          "name": "tokenMaker",
          "type": "address"
        },
        {
          "indexed": false,
          "name": "tokenTaker",
          "type": "address"
        },
        {
          "indexed": false,
          "name": "amountMaker",
          "type": "uint256"
        },
        {
          "indexed": false,
          "name": "amountTaker",
          "type": "uint256"
        },
        {
          "indexed": false,
          "name": "addressMaker",
          "type": "address"
        },
        {
          "indexed": false,
          "name": "addressTaker",
          "type": "address"
        },
        {
          "indexed": false,
          "name": "nonce",
          "type": "uint256"
        }
      ],
      "name": "OrderFilled",
      "type": "event"
    },
    {
      "constant": false,
      "inputs": [
        {
          "name": "token",
          "type": "address"
        },
        {
          "name": "amount",
          "type": "uint256"
        }
      ],
      "name": "deposit",
      "outputs": [],
      "payable": false,
      "stateMutability": "nonpayable",
      "type": "function"
    },
    {
      "constant": false,
      "inputs": [
        {
          "name": "token",
          "type": "address"
        },
        {
          "name": "amount",
          "type": "uint256"
        }
      ],
      "name": "withdraw",
      "outputs": [],
      "payable": false,
      "stateMutability": "nonpayable",
      "type": "function"
    },
    {
      "constant": false,
      "inputs": [
        {
          "name": "tokenMaker",
          "type": "address"
        },
        {
          "name": "tokenTaker",
          "type": "address"
        },
        {
          "name": "amountMaker",
          "type": "uint256"
        },
        {
          "name": "amountTaker",
          "type": "uint256"
        },
        {
          "name": "addressMaker",
          "type": "address"
        },
        {
          "name": "addressTaker",
          "type": "address"
        },
        {
          "name": "nonce",
          "type": "uint256"
        },
        {
          "name": "signature",
          "type": "bytes"
        }
      ],
      "name": "trade",
      "outputs": [],
      "payable": false,
      "stateMutability": "nonpayable",
      "type": "function"
    }
  ],
  "bytecode": "0x608060405234801561001057600080fd5b503373ffffffffffffffffffffffffffffffffffffffff166000809054906101000a905050506111d8806100456000396000f3fe608060405234801561001057600080fd5b50600436106100415760003560e01c806347e7ef241461004657806362ec2c7514610094578063f3fef3a3146101ee575b600080fd5b6100926004803603604081101561005c57600080fd5b81019080803573ffffffffffffffffffffffffffffffffffffffff1690602001909291908035906020019092919050505061023c565b005b6101ec60048036036101008110156100ab57600080fd5b81019080803573ffffffffffffffffffffffffffffffffffffffff169060200190929190803573ffffffffffffffffffffffffffffffffffffffff1690602001909291908035906020019092919080359060200190929190803573ffffffffffffffffffffffffffffffffffffffff169060200190929190803573ffffffffffffffffffffffffffffffffffffffff169060200190929190803590602001909291908035906020019064010000000081111561016657600080fd5b82018360208201111561017857600080fd5b8035906020019184600183028401116401000000008311171561019a57600080fd5b91908080601f016020809104026020016040519081016040528093929190818152602001838380828437600081840152601f19601f82011690508083019250505050505050919291929050505061053d565b005b61023a6004803603604081101561020457600080fd5b81019080803573ffffffffffffffffffffffffffffffffffffffff16906020019092919080359060200190929190505050610d4a565b005b8173ffffffffffffffffffffffffffffffffffffffff166352ec85293330846040518463ffffffff1660e01b8152600401808473ffffffffffffffffffffffffffffffffffffffff1673ffffffffffffffffffffffffffffffffffffffff1681526020018373ffffffffffffffffffffffffffffffffffffffff1673ffffffffffffffffffffffffffffffffffffffff1681526020018281526020019350505050602060405180830381600087803b1580156102f757600080fd5b505af115801561030b573d6000803e3d6000fd5b505050506040513d602081101561032157600080fd5b8101908080519060200190929190505050508173ffffffffffffffffffffffffffffffffffffffff166323b872dd3330846040518463ffffffff1660e01b8152600401808473ffffffffffffffffffffffffffffffffffffffff1673ffffffffffffffffffffffffffffffffffffffff1681526020018373ffffffffffffffffffffffffffffffffffffffff1673ffffffffffffffffffffffffffffffffffffffff1681526020018281526020019350505050602060405180830381600087803b1580156103ee57600080fd5b505af1158015610402573d6000803e3d6000fd5b505050506040513d602081101561041857600080fd5b8101908080519060200190929190505050506104b981600160008573ffffffffffffffffffffffffffffffffffffffff1673ffffffffffffffffffffffffffffffffffffffff16815260200190815260200160002060003373ffffffffffffffffffffffffffffffffffffffff1673ffffffffffffffffffffffffffffffffffffffff16815260200190815260200160002054610d4e90919063ffffffff16565b600160008473ffffffffffffffffffffffffffffffffffffffff1673ffffffffffffffffffffffffffffffffffffffff16815260200190815260200160002060003373ffffffffffffffffffffffffffffffffffffffff1673ffffffffffffffffffffffffffffffffffffffff168152602001908152602001600020819055505050565b610545611117565b6040518060e001604052808a73ffffffffffffffffffffffffffffffffffffffff1681526020018973ffffffffffffffffffffffffffffffffffffffff1681526020018881526020018781526020018673ffffffffffffffffffffffffffffffffffffffff1681526020018573ffffffffffffffffffffffffffffffffffffffff1681526020018481525090506000809054906101000a900473ffffffffffffffffffffffffffffffffffffffff1673ffffffffffffffffffffffffffffffffffffffff163373ffffffffffffffffffffffffffffffffffffffff161461062b57600080fd5b6106358183610dd6565b61063e57600080fd5b600089905060008a90508173ffffffffffffffffffffffffffffffffffffffff1663a9059cbb878a6040518363ffffffff1660e01b8152600401808373ffffffffffffffffffffffffffffffffffffffff1673ffffffffffffffffffffffffffffffffffffffff16815260200182815260200192505050602060405180830381600087803b1580156106cf57600080fd5b505af11580156106e3573d6000803e3d6000fd5b505050506040513d60208110156106f957600080fd5b81019080805190602001909291905050505061079a88600160008e73ffffffffffffffffffffffffffffffffffffffff1673ffffffffffffffffffffffffffffffffffffffff16815260200190815260200160002060008a73ffffffffffffffffffffffffffffffffffffffff1673ffffffffffffffffffffffffffffffffffffffff16815260200190815260200160002054610f7490919063ffffffff16565b600160008d73ffffffffffffffffffffffffffffffffffffffff1673ffffffffffffffffffffffffffffffffffffffff16815260200190815260200160002060008973ffffffffffffffffffffffffffffffffffffffff1673ffffffffffffffffffffffffffffffffffffffff168152602001908152602001600020819055506108a988600160008e73ffffffffffffffffffffffffffffffffffffffff1673ffffffffffffffffffffffffffffffffffffffff16815260200190815260200160002060008973ffffffffffffffffffffffffffffffffffffffff1673ffffffffffffffffffffffffffffffffffffffff16815260200190815260200160002054610d4e90919063ffffffff16565b600160008d73ffffffffffffffffffffffffffffffffffffffff1673ffffffffffffffffffffffffffffffffffffffff16815260200190815260200160002060008873ffffffffffffffffffffffffffffffffffffffff1673ffffffffffffffffffffffffffffffffffffffff168152602001908152602001600020819055508073ffffffffffffffffffffffffffffffffffffffff1663a9059cbb888b6040518363ffffffff1660e01b8152600401808373ffffffffffffffffffffffffffffffffffffffff1673ffffffffffffffffffffffffffffffffffffffff16815260200182815260200192505050602060405180830381600087803b1580156109b057600080fd5b505af11580156109c4573d6000803e3d6000fd5b505050506040513d60208110156109da57600080fd5b810190808051906020019092919050505050610a7b89600160008d73ffffffffffffffffffffffffffffffffffffffff1673ffffffffffffffffffffffffffffffffffffffff16815260200190815260200160002060008973ffffffffffffffffffffffffffffffffffffffff1673ffffffffffffffffffffffffffffffffffffffff16815260200190815260200160002054610f7490919063ffffffff16565b600160008c73ffffffffffffffffffffffffffffffffffffffff1673ffffffffffffffffffffffffffffffffffffffff16815260200190815260200160002060008873ffffffffffffffffffffffffffffffffffffffff1673ffffffffffffffffffffffffffffffffffffffff16815260200190815260200160002081905550610b8a89600160008d73ffffffffffffffffffffffffffffffffffffffff1673ffffffffffffffffffffffffffffffffffffffff16815260200190815260200160002060008a73ffffffffffffffffffffffffffffffffffffffff1673ffffffffffffffffffffffffffffffffffffffff16815260200190815260200160002054610d4e90919063ffffffff16565b600160008c73ffffffffffffffffffffffffffffffffffffffff1673ffffffffffffffffffffffffffffffffffffffff16815260200190815260200160002060008973ffffffffffffffffffffffffffffffffffffffff1673ffffffffffffffffffffffffffffffffffffffff168152602001908152602001600020819055507f840ce3964266bdf8c78bfb4588758dd9c6c272d1e96073c8a764e3ec712a4e45836000015184602001518560400151866060015187608001518860a001518960c00151604051808873ffffffffffffffffffffffffffffffffffffffff1673ffffffffffffffffffffffffffffffffffffffff1681526020018773ffffffffffffffffffffffffffffffffffffffff1673ffffffffffffffffffffffffffffffffffffffff1681526020018681526020018581526020018473ffffffffffffffffffffffffffffffffffffffff1673ffffffffffffffffffffffffffffffffffffffff1681526020018373ffffffffffffffffffffffffffffffffffffffff1673ffffffffffffffffffffffffffffffffffffffff16815260200182815260200197505050505050505060405180910390a15050505050505050505050565b5050565b600080828401905083811015610dcc576040517f08c379a000000000000000000000000000000000000000000000000000000000815260040180806020018281038252601b8152602001807f536166654d6174683a206164646974696f6e206f766572666c6f77000000000081525060200191505060405180910390fd5b8091505092915050565b600080610f10846000015185602001518660400151876060015188608001518960a001518a60c00151604051602001808873ffffffffffffffffffffffffffffffffffffffff1673ffffffffffffffffffffffffffffffffffffffff1660601b81526014018773ffffffffffffffffffffffffffffffffffffffff1673ffffffffffffffffffffffffffffffffffffffff1660601b81526014018681526020018581526020018473ffffffffffffffffffffffffffffffffffffffff1673ffffffffffffffffffffffffffffffffffffffff1660601b81526014018373ffffffffffffffffffffffffffffffffffffffff1673ffffffffffffffffffffffffffffffffffffffff1660601b815260140182815260200197505050505050505060405160208183030381529060405280519060200120610ffd565b90506000809054906101000a900473ffffffffffffffffffffffffffffffffffffffff1673ffffffffffffffffffffffffffffffffffffffff16610f548285611055565b73ffffffffffffffffffffffffffffffffffffffff161491505092915050565b600082821115610fec576040517f08c379a000000000000000000000000000000000000000000000000000000000815260040180806020018281038252601e8152602001807f536166654d6174683a207375627472616374696f6e206f766572666c6f77000081525060200191505060405180910390fd5b600082840390508091505092915050565b60008160405160200180807f19457468657265756d205369676e6564204d6573736167653a0a333200000000815250601c01828152602001915050604051602081830303815290604052805190602001209050919050565b600080600080611064856110dc565b92509250925060018684848460405160008152602001604052604051808581526020018460ff1660ff1681526020018381526020018281526020019450505050506020604051602081039080840390855afa1580156110c7573d6000803e3d6000fd5b50505060206040510351935050505092915050565b600080600060418451146110ef57600080fd5b6020840151915060408401519050606084015160001a92508282829250925092509193909250565b6040518060e00160405280600073ffffffffffffffffffffffffffffffffffffffff168152602001600073ffffffffffffffffffffffffffffffffffffffff1681526020016000815260200160008152602001600073ffffffffffffffffffffffffffffffffffffffff168152602001600073ffffffffffffffffffffffffffffffffffffffff16815260200160008152509056fea165627a7a72305820621c4f1825970128751baee3a5916d07bc58e058d121d4b62e99772525d06bf80029",
  "source": "pragma solidity ^0.5.2;\n\nimport \"openzeppelin-solidity/contracts/math/SafeMath.sol\";\nimport \"openzeppelin-solidity/contracts/token/ERC20/IERC20.sol\";\nimport \"./Approvable.sol\";\n\ncontract DEX {\n    using SafeMath for uint256;\n\n    address private _matchingEngine;\n    mapping (address => mapping (address => uint256)) private _tokens;\n\n    struct Trade {\n        address tokenMaker;\n        address tokenTaker;\n        uint256 amountMaker;\n        uint256 amountTaker;\n        address addressMaker;\n        address addressTaker;\n        uint256 nonce;\n    }\n\n    event OrderFilled(\n        address tokenMaker,\n        address tokenTaker,\n        uint256 amountMaker,\n        uint256 amountTaker,\n        address addressMaker,\n        address addressTaker,\n        uint256 nonce\n    );\n\n    constructor () public {\n        _matchingEngine == msg.sender; // Or we can hard code the matching engine address directly.\n    }\n\n    function deposit(address token, uint256 amount) public {\n        Approvable(token).approveFrom(msg.sender, address(this), amount);\n        IERC20(token).transferFrom(msg.sender, address(this), amount);\n        _tokens[token][msg.sender] = _tokens[token][msg.sender].add(amount);\n    }\n\n    function withdraw(address token, uint256 amount) public {\n\n    }\n\n    function trade(\n        address tokenMaker,\n        address tokenTaker,\n        uint256 amountMaker,\n        uint256 amountTaker,\n        address addressMaker,\n        address addressTaker,\n        uint256 nonce,\n        bytes memory signature\n    ) public {\n        Trade memory trade = Trade(tokenMaker, tokenTaker, amountMaker, amountTaker, addressMaker, addressTaker, nonce);\n        require(msg.sender == _matchingEngine);\n        require(isValidSignature(trade, signature));\n\n        // Token exchange\n        IERC20 _tokenMaker = IERC20(tokenMaker);\n        IERC20 _tokenTaker = IERC20(tokenMaker);\n\n        _tokenMaker.transfer(addressTaker, amountTaker);\n        _tokens[tokenMaker][addressMaker] = _tokens[tokenMaker][addressMaker].sub(amountTaker);\n        _tokens[tokenMaker][addressTaker] = _tokens[tokenMaker][addressTaker].add(amountTaker);\n\n        _tokenTaker.transfer(addressMaker, amountMaker);\n        _tokens[tokenTaker][addressTaker] = _tokens[tokenTaker][addressTaker].sub(amountMaker);\n        _tokens[tokenTaker][addressMaker] = _tokens[tokenTaker][addressMaker].add(amountMaker);\n\n        emit OrderFilled(\n            trade.tokenMaker,\n            trade.tokenTaker,\n            trade.amountMaker,\n            trade.amountTaker,\n            trade.addressMaker,\n            trade.addressTaker,\n            trade.nonce\n        );\n    }\n\n    function isValidSignature(Trade memory trade, bytes memory signature)\n        internal\n        view\n        returns (bool)\n    {\n        bytes32 tradeHash = prefixed(keccak256(abi.encodePacked(\n            trade.tokenMaker,\n            trade.tokenTaker,\n            trade.amountMaker,\n            trade.amountTaker,\n            trade.addressMaker,\n            trade.addressTaker,\n            trade.nonce\n        )));\n\n        // check that the signature is from the matching engine\n        return recoverSigner(tradeHash, signature) == _matchingEngine;\n    }\n\n    // builds a prefixed hash to mimic the behavior of eth_sign.\n    function prefixed(bytes32 hash) internal pure returns (bytes32) {\n        return keccak256(abi.encodePacked(\"\\x19Ethereum Signed Message:\\n32\", hash));\n    }\n\n    function recoverSigner(bytes32 message, bytes memory sig)\n        internal\n        pure\n        returns (address)\n    {\n        (uint8 v, bytes32 r, bytes32 s) = splitSignature(sig);\n\n        return ecrecover(message, v, r, s);\n    }\n\n    function splitSignature(bytes memory sig)\n        internal\n        pure\n        returns (uint8 v, bytes32 r, bytes32 s)\n    {\n        require(sig.length == 65);\n\n        assembly {\n        // first 32 bytes, after the length prefix\n            r := mload(add(sig, 32))\n        // second 32 bytes\n            s := mload(add(sig, 64))\n        // final byte (first byte of the next 32 bytes)\n            v := byte(0, mload(add(sig, 96)))\n        }\n\n        return (v, r, s);\n    }\n\n}",
  "sourcePath": "/Users/samyabouseda/Project/DecentralizedTradingPlatform/dex-frontend/contracts/DEX.sol",
  "compiler": {
    "name": "solc",
    "version": "0.5.8+commit.23d335f2.Emscripten.clang"
  },
  "schemaVersion": "3.0.11",
  "updatedAt": "2019-08-06T10:52:51.847Z",
  "devdoc": {
    "methods": {}
  },
  "userdoc": {
    "methods": {}
  }
}