{
  "contractName": "StockICO",
  "abi": [
    {
      "constant": true,
      "inputs": [],
      "name": "fiatToken",
      "outputs": [
        {
          "name": "",
          "type": "address"
        }
      ],
      "payable": false,
      "stateMutability": "view",
      "type": "function"
    },
    {
      "constant": true,
      "inputs": [],
      "name": "owner",
      "outputs": [
        {
          "name": "",
          "type": "address"
        }
      ],
      "payable": false,
      "stateMutability": "view",
      "type": "function"
    },
    {
      "constant": true,
      "inputs": [],
      "name": "pricePerShare",
      "outputs": [
        {
          "name": "",
          "type": "uint8"
        }
      ],
      "payable": false,
      "stateMutability": "view",
      "type": "function"
    },
    {
      "constant": true,
      "inputs": [],
      "name": "stockToken",
      "outputs": [
        {
          "name": "",
          "type": "address"
        }
      ],
      "payable": false,
      "stateMutability": "view",
      "type": "function"
    },
    {
      "inputs": [
        {
          "name": "_stockToken",
          "type": "address"
        },
        {
          "name": "_fiatToken",
          "type": "address"
        },
        {
          "name": "_pricePerShare",
          "type": "uint8"
        }
      ],
      "payable": false,
      "stateMutability": "nonpayable",
      "type": "constructor"
    },
    {
      "payable": true,
      "stateMutability": "payable",
      "type": "fallback"
    },
    {
      "anonymous": false,
      "inputs": [
        {
          "indexed": true,
          "name": "purchaser",
          "type": "address"
        },
        {
          "indexed": true,
          "name": "beneficiary",
          "type": "address"
        },
        {
          "indexed": false,
          "name": "fiatToken",
          "type": "address"
        },
        {
          "indexed": false,
          "name": "fiatAmount",
          "type": "uint256"
        },
        {
          "indexed": false,
          "name": "stockToken",
          "type": "address"
        },
        {
          "indexed": false,
          "name": "stockAmount",
          "type": "uint256"
        }
      ],
      "name": "TokensPurchased",
      "type": "event"
    },
    {
      "constant": false,
      "inputs": [
        {
          "name": "_fiatAmount",
          "type": "uint256"
        }
      ],
      "name": "buyStock",
      "outputs": [],
      "payable": false,
      "stateMutability": "nonpayable",
      "type": "function"
    }
  ],
  "bytecode": "0x608060405234801561001057600080fd5b50604051606080610b478339810180604052606081101561003057600080fd5b81019080805190602001909291908051906020019092919080519060200190929190505050336000806101000a81548173ffffffffffffffffffffffffffffffffffffffff021916908373ffffffffffffffffffffffffffffffffffffffff16021790555082600160006101000a81548173ffffffffffffffffffffffffffffffffffffffff021916908373ffffffffffffffffffffffffffffffffffffffff16021790555081600260006101000a81548173ffffffffffffffffffffffffffffffffffffffff021916908373ffffffffffffffffffffffffffffffffffffffff16021790555080600260146101000a81548160ff021916908360ff160217905550505050610a03806101446000396000f3fe60806040526004361061004a5760003560e01c8063148f2a9c1461004c5780635a724a26146100875780638da5cb5b146100de57806399530b0614610135578063baa8e78614610166575b005b34801561005857600080fd5b506100856004803603602081101561006f57600080fd5b81019080803590602001909291905050506101bd565b005b34801561009357600080fd5b5061009c6107ef565b604051808273ffffffffffffffffffffffffffffffffffffffff1673ffffffffffffffffffffffffffffffffffffffff16815260200191505060405180910390f35b3480156100ea57600080fd5b506100f3610815565b604051808273ffffffffffffffffffffffffffffffffffffffff1673ffffffffffffffffffffffffffffffffffffffff16815260200191505060405180910390f35b34801561014157600080fd5b5061014a61083a565b604051808260ff1660ff16815260200191505060405180910390f35b34801561017257600080fd5b5061017b61084d565b604051808273ffffffffffffffffffffffffffffffffffffffff1673ffffffffffffffffffffffffffffffffffffffff16815260200191505060405180910390f35b6000600260009054906101000a900473ffffffffffffffffffffffffffffffffffffffff1673ffffffffffffffffffffffffffffffffffffffff166370a08231336040518263ffffffff1660e01b8152600401808273ffffffffffffffffffffffffffffffffffffffff1673ffffffffffffffffffffffffffffffffffffffff16815260200191505060206040518083038186803b15801561025e57600080fd5b505afa158015610272573d6000803e3d6000fd5b505050506040513d602081101561028857600080fd5b81019080805190602001909291905050501161030c576040517f08c379a00000000000000000000000000000000000000000000000000000000081526004018080602001828103825260198152602001807f53656e6465722062616c616e63652063616e277420626520300000000000000081525060200191505060405180910390fd5b60008111610382576040517f08c379a00000000000000000000000000000000000000000000000000000000081526004018080602001828103825260118152602001807f416d6f756e742063616e2774206265203000000000000000000000000000000081525060200191505060405180910390fd5b6000339050600030905060006103a9670de0b6b3a76400008561087390919063ffffffff16565b905060006103b6856108f9565b9050600260009054906101000a900473ffffffffffffffffffffffffffffffffffffffff1673ffffffffffffffffffffffffffffffffffffffff166352ec85293330856040518463ffffffff1660e01b8152600401808473ffffffffffffffffffffffffffffffffffffffff1673ffffffffffffffffffffffffffffffffffffffff1681526020018373ffffffffffffffffffffffffffffffffffffffff1673ffffffffffffffffffffffffffffffffffffffff1681526020018281526020019350505050602060405180830381600087803b15801561049557600080fd5b505af11580156104a9573d6000803e3d6000fd5b505050506040513d60208110156104bf57600080fd5b810190808051906020019092919050505050600260009054906101000a900473ffffffffffffffffffffffffffffffffffffffff1673ffffffffffffffffffffffffffffffffffffffff166323b872dd3330856040518463ffffffff1660e01b8152600401808473ffffffffffffffffffffffffffffffffffffffff1673ffffffffffffffffffffffffffffffffffffffff1681526020018373ffffffffffffffffffffffffffffffffffffffff1673ffffffffffffffffffffffffffffffffffffffff1681526020018281526020019350505050602060405180830381600087803b1580156105ae57600080fd5b505af11580156105c2573d6000803e3d6000fd5b505050506040513d60208110156105d857600080fd5b810190808051906020019092919050505050600160009054906101000a900473ffffffffffffffffffffffffffffffffffffffff1673ffffffffffffffffffffffffffffffffffffffff1663a9059cbb33836040518363ffffffff1660e01b8152600401808373ffffffffffffffffffffffffffffffffffffffff1673ffffffffffffffffffffffffffffffffffffffff16815260200182815260200192505050602060405180830381600087803b15801561069357600080fd5b505af11580156106a7573d6000803e3d6000fd5b505050506040513d60208110156106bd57600080fd5b8101908080519060200190929190505050508273ffffffffffffffffffffffffffffffffffffffff168473ffffffffffffffffffffffffffffffffffffffff167f7df09812c4f5180177c8c3ec9357bace88e422c57cbf704babea9d50be9695e3600260009054906101000a900473ffffffffffffffffffffffffffffffffffffffff1685600160009054906101000a900473ffffffffffffffffffffffffffffffffffffffff1686604051808573ffffffffffffffffffffffffffffffffffffffff1673ffffffffffffffffffffffffffffffffffffffff1681526020018481526020018373ffffffffffffffffffffffffffffffffffffffff1673ffffffffffffffffffffffffffffffffffffffff16815260200182815260200194505050505060405180910390a35050505050565b600260009054906101000a900473ffffffffffffffffffffffffffffffffffffffff1681565b6000809054906101000a900473ffffffffffffffffffffffffffffffffffffffff1681565b600260149054906101000a900460ff1681565b600160009054906101000a900473ffffffffffffffffffffffffffffffffffffffff1681565b60008083141561088657600090506108f3565b600082840290508284828161089757fe5b04146108ee576040517f08c379a00000000000000000000000000000000000000000000000000000000081526004018080602001828103825260218152602001806109b76021913960400191505060405180910390fd5b809150505b92915050565b6000610920600260149054906101000a900460ff1660ff168361092790919063ffffffff16565b9050919050565b600080821161099e576040517f08c379a000000000000000000000000000000000000000000000000000000000815260040180806020018281038252601a8152602001807f536166654d6174683a206469766973696f6e206279207a65726f00000000000081525060200191505060405180910390fd5b60008284816109a957fe5b049050809150509291505056fe536166654d6174683a206d756c7469706c69636174696f6e206f766572666c6f77a165627a7a723058208bfc4c24e0b1646186bf6311c5aacac1259e00aa08111c5f903359f76b18a3b70029",
  "source": "pragma solidity ^0.5.2;\n\nimport \"./Stock.sol\";\nimport \"./Fiat.sol\";\n\ncontract StockICO {\n    using SafeMath for uint256;\n\n    address public owner;\n    Stock public stockToken;\n    Fiat public fiatToken;\n    uint8 public pricePerShare;\n\n    event TokensPurchased(\n        address indexed purchaser,\n        address indexed beneficiary,\n        Fiat fiatToken,\n        uint256 fiatAmount,\n        Stock stockToken,\n        uint256 stockAmount\n    );\n\n    constructor(Stock _stockToken, Fiat _fiatToken, uint8 _pricePerShare) public {\n        owner = msg.sender;\n        stockToken = _stockToken;\n        fiatToken = _fiatToken;\n        pricePerShare = _pricePerShare;\n    }\n\n    // Will receive any eth sent to the contract.\n    function () external payable {\n    }\n\n    /**\n     * @dev Called by user to exchange Fiat token against Stock token.\n     * @param _fiatAmount the number of Fiat tokens to be exchanged for Stock tokens.\n     */\n    function buyStock(uint _fiatAmount) public {\n        require(fiatToken.balanceOf(msg.sender) > 0, \"Sender balance can't be 0\");\n        require(_fiatAmount > 0, \"Amount can't be 0\");\n\n        address _buyer = msg.sender;\n        address _recipient = address(this);\n\n        // 1 USDX = 10^18 wei\n        uint _fiatAmountInWei = _fiatAmount.mul(1000000000000000000);\n        uint _stockAmount = _getStockAmount(_fiatAmount);\n\n        fiatToken.approveFrom(msg.sender, address(this), _fiatAmountInWei);\n        fiatToken.transferFrom(msg.sender, address(this), _fiatAmountInWei);\n        stockToken.transfer(msg.sender, _stockAmount);\n\n        emit TokensPurchased(_buyer, _recipient, fiatToken, _fiatAmountInWei, stockToken, _stockAmount);\n    }\n\n    function _getStockAmount(uint256 _fiatAmount) internal view returns (uint256) {\n        return _fiatAmount.div(pricePerShare);\n    }\n\n    function getTotalSupply() internal view returns (uint256) {\n        return IERC20(stockToken).totalSupply();\n    }\n}",
  "sourcePath": "/Users/samyabouseda/Project/DecentralizedTradingPlatform/dex-frontend/contracts/StockICO.sol",
  "compiler": {
    "name": "solc",
    "version": "0.5.8+commit.23d335f2.Emscripten.clang"
  },
  "schemaVersion": "3.0.11",
  "updatedAt": "2019-08-11T13:06:56.991Z",
  "devdoc": {
    "methods": {
      "buyStock(uint256)": {
        "details": "Called by user to exchange Fiat token against Stock token.",
        "params": {
          "_fiatAmount": "the number of Fiat tokens to be exchanged for Stock tokens."
        }
      }
    }
  },
  "userdoc": {
    "methods": {}
  }
}